{
  "abi": [
    {
      "inputs": [
        {
          "internalType": "address[]",
          "name": "_signers",
          "type": "address[]"
        },
        {
          "internalType": "uint8",
          "name": "_requiredSignatures",
          "type": "uint8"
        }
      ],
      "stateMutability": "payable",
      "type": "constructor"
    },
    {
      "anonymous": false,
      "inputs": [
        {
          "indexed": true,
          "internalType": "address",
          "name": "_from",
          "type": "address"
        },
        {
          "indexed": true,
          "internalType": "uint256",
          "name": "_value",
          "type": "uint256"
        }
      ],
      "name": "Deposit",
      "type": "event"
    },
    {
      "anonymous": false,
      "inputs": [
        {
          "indexed": true,
          "internalType": "uint32",
          "name": "_id",
          "type": "uint32"
        },
        {
          "indexed": false,
          "internalType": "address",
          "name": "_executor",
          "type": "address"
        }
      ],
      "name": "Execute",
      "type": "event"
    },
    {
      "anonymous": false,
      "inputs": [
        {
          "indexed": true,
          "internalType": "uint32",
          "name": "_id",
          "type": "uint32"
        },
        {
          "indexed": true,
          "internalType": "address",
          "name": "_creator",
          "type": "address"
        }
      ],
      "name": "Initialize",
      "type": "event"
    },
    {
      "anonymous": false,
      "inputs": [
        {
          "indexed": true,
          "internalType": "uint32",
          "name": "_id",
          "type": "uint32"
        },
        {
          "indexed": true,
          "internalType": "address",
          "name": "_signer",
          "type": "address"
        }
      ],
      "name": "Sign",
      "type": "event"
    },
    {
      "anonymous": false,
      "inputs": [
        {
          "indexed": true,
          "internalType": "uint32",
          "name": "_id",
          "type": "uint32"
        },
        {
          "indexed": true,
          "internalType": "address",
          "name": "_signer",
          "type": "address"
        }
      ],
      "name": "Unsign",
      "type": "event"
    },
    {
      "inputs": [
        {
          "internalType": "uint32",
          "name": "_id",
          "type": "uint32"
        }
      ],
      "name": "executeTransaction",
      "outputs": [],
      "stateMutability": "nonpayable",
      "type": "function"
    },
    {
      "inputs": [],
      "name": "getSigners",
      "outputs": [
        {
          "internalType": "address[]",
          "name": "",
          "type": "address[]"
        }
      ],
      "stateMutability": "view",
      "type": "function"
    },
    {
      "inputs": [],
      "name": "getTransactions",
      "outputs": [
        {
          "components": [
            {
              "internalType": "address",
              "name": "to",
              "type": "address"
            },
            {
              "internalType": "uint256",
              "name": "value",
              "type": "uint256"
            },
            {
              "internalType": "bytes",
              "name": "data",
              "type": "bytes"
            },
            {
              "internalType": "bool",
              "name": "executed",
              "type": "bool"
            }
          ],
          "internalType": "struct Multisig.Transaction[]",
          "name": "",
          "type": "tuple[]"
        }
      ],
      "stateMutability": "view",
      "type": "function"
    },
    {
      "inputs": [
        {
          "internalType": "uint32",
          "name": "",
          "type": "uint32"
        },
        {
          "internalType": "address",
          "name": "",
          "type": "address"
        }
      ],
      "name": "hasSigned",
      "outputs": [
        {
          "internalType": "bool",
          "name": "",
          "type": "bool"
        }
      ],
      "stateMutability": "view",
      "type": "function"
    },
    {
      "inputs": [
        {
          "internalType": "address",
          "name": "_to",
          "type": "address"
        },
        {
          "internalType": "uint256",
          "name": "_value",
          "type": "uint256"
        },
        {
          "internalType": "bytes",
          "name": "_data",
          "type": "bytes"
        }
      ],
      "name": "initializeTransaction",
      "outputs": [],
      "stateMutability": "nonpayable",
      "type": "function"
    },
    {
      "inputs": [
        {
          "internalType": "uint32",
          "name": "_id",
          "type": "uint32"
        }
      ],
      "name": "isApproved",
      "outputs": [
        {
          "internalType": "bool",
          "name": "",
          "type": "bool"
        }
      ],
      "stateMutability": "view",
      "type": "function"
    },
    {
      "inputs": [
        {
          "internalType": "address",
          "name": "",
          "type": "address"
        }
      ],
      "name": "isSigner",
      "outputs": [
        {
          "internalType": "bool",
          "name": "",
          "type": "bool"
        }
      ],
      "stateMutability": "view",
      "type": "function"
    },
    {
      "inputs": [],
      "name": "requiredSignatures",
      "outputs": [
        {
          "internalType": "uint8",
          "name": "",
          "type": "uint8"
        }
      ],
      "stateMutability": "view",
      "type": "function"
    },
    {
      "inputs": [
        {
          "internalType": "uint32",
          "name": "_id",
          "type": "uint32"
        }
      ],
      "name": "signTransaction",
      "outputs": [],
      "stateMutability": "nonpayable",
      "type": "function"
    },
    {
      "inputs": [
        {
          "internalType": "uint256",
          "name": "",
          "type": "uint256"
        }
      ],
      "name": "signers",
      "outputs": [
        {
          "internalType": "address",
          "name": "",
          "type": "address"
        }
      ],
      "stateMutability": "view",
      "type": "function"
    },
    {
      "inputs": [],
      "name": "signersCount",
      "outputs": [
        {
          "internalType": "uint256",
          "name": "",
          "type": "uint256"
        }
      ],
      "stateMutability": "view",
      "type": "function"
    },
    {
      "inputs": [
        {
          "internalType": "uint256",
          "name": "",
          "type": "uint256"
        }
      ],
      "name": "transactions",
      "outputs": [
        {
          "internalType": "address",
          "name": "to",
          "type": "address"
        },
        {
          "internalType": "uint256",
          "name": "value",
          "type": "uint256"
        },
        {
          "internalType": "bytes",
          "name": "data",
          "type": "bytes"
        },
        {
          "internalType": "bool",
          "name": "executed",
          "type": "bool"
        }
      ],
      "stateMutability": "view",
      "type": "function"
    },
    {
      "inputs": [
        {
          "internalType": "uint32",
          "name": "_id",
          "type": "uint32"
        }
      ],
      "name": "unsignTransaction",
      "outputs": [],
      "stateMutability": "nonpayable",
      "type": "function"
    },
    {
      "stateMutability": "payable",
      "type": "receive"
    }
  ],
  "bytecode": {
    "object": "0x6080604052604051620015e5380380620015e58339810160408190526200002691620002e4565b60008160ff161180156200003e575081518160ff1611155b6200009b5760405162461bcd60e51b815260206004820152602260248201527f496e76616c6964207265717569726564207369676e61747572657320616d6f756044820152611b9d60f21b60648201526084015b60405180910390fd5b6002805460ff191660ff831617905560005b82518160ff161015620002965760006001600160a01b0316838260ff1681518110620000dd57620000dd620003ca565b60200260200101516001600160a01b031614156200013e5760405162461bcd60e51b815260206004820152601e60248201527f5a65726f20616464726573732063616e27742062652061207369676e65720000604482015260640162000092565b60016000848360ff16815181106200015a576200015a620003ca565b6020908102919091018101516001600160a01b031682528101919091526040016000205460ff1615620001d05760405162461bcd60e51b815260206004820152601c60248201527f456e636f756e7465726564207369676e6572207265647564616e637900000000604482015260640162000092565b6001806000858460ff1681518110620001ed57620001ed620003ca565b60200260200101516001600160a01b03166001600160a01b0316815260200190815260200160002060006101000a81548160ff0219169083151502179055506000838260ff1681518110620002465762000246620003ca565b60209081029190910181015182546001810184556000938452919092200180546001600160a01b0319166001600160a01b03909216919091179055806200028d81620003e0565b915050620000ad565b5050506200040f565b634e487b7160e01b600052604160045260246000fd5b80516001600160a01b0381168114620002cd57600080fd5b919050565b805160ff81168114620002cd57600080fd5b60008060408385031215620002f857600080fd5b82516001600160401b03808211156200031057600080fd5b818501915085601f8301126200032557600080fd5b81516020828211156200033c576200033c6200029f565b8160051b604051601f19603f830116810181811086821117156200036457620003646200029f565b6040529283528183019350848101820192898411156200038357600080fd5b948201945b83861015620003ac576200039c86620002b5565b8552948201949382019362000388565b9650620003bd9050878201620002d2565b9450505050509250929050565b634e487b7160e01b600052603260045260246000fd5b600060ff821660ff8114156200040657634e487b7160e01b600052601160045260246000fd5b60010192915050565b6111c6806200041f6000396000f3fe6080604052600436106100c65760003560e01c80638fa837fd1161007f5780639ace38c2116100595780639ace38c21461026e578063a3e2cd721461029e578063a91fe53f146102be578063e40956b1146102f957600080fd5b80638fa837fd1461020c57806394cf795e1461022c578063998e32fd1461024e57600080fd5b80630aaa8202146100ff5780630c74b6a7146101215780632079fb9a146101415780637df73e271461017e57806383920e90146101be5780638d068043146101e057600080fd5b366100fa57604051349033907fe1fffcc4923d04b559f4d29a8bfc6cda04eb5b0d3c460751c2402c5c5cc9109c90600090a3005b600080fd5b34801561010b57600080fd5b5061011f61011a366004610cfb565b610317565b005b34801561012d57600080fd5b5061011f61013c366004610d34565b61041e565b34801561014d57600080fd5b5061016161015c366004610dbb565b61056c565b6040516001600160a01b0390911681526020015b60405180910390f35b34801561018a57600080fd5b506101ae610199366004610dd4565b60016020526000908152604090205460ff1681565b6040519015158152602001610175565b3480156101ca57600080fd5b506101d3610596565b6040516101759190610e3c565b3480156101ec57600080fd5b506002546101fa9060ff1681565b60405160ff9091168152602001610175565b34801561021857600080fd5b5061011f610227366004610cfb565b6106b9565b34801561023857600080fd5b50610241610811565b6040516101759190610ed5565b34801561025a57600080fd5b506101ae610269366004610cfb565b610873565b34801561027a57600080fd5b5061028e610289366004610dbb565b61094f565b6040516101759493929190610f22565b3480156102aa57600080fd5b5061011f6102b9366004610cfb565b610a21565b3480156102ca57600080fd5b506101ae6102d9366004610f5c565b600460209081526000928352604080842090915290825290205460ff1681565b34801561030557600080fd5b50600054604051908152602001610175565b3360009081526001602052604090205460ff1661034f5760405162461bcd60e51b815260040161034690610f8f565b60405180910390fd5b600354819063ffffffff8216106103785760405162461bcd60e51b815260040161034690610fc6565b8160038163ffffffff168154811061039257610392610ffd565b600091825260209091206003600490920201015460ff16156103c65760405162461bcd60e51b815260040161034690611013565b63ffffffff83166000818152600460209081526040808320338085529252808320805460ff19166001179055519092917f658b3d92d777380578a5dfd78bc7ac9a3f83ed2bbeb398c27a1281e035b0860491a3505050565b3360009081526001602052604090205460ff1661044d5760405162461bcd60e51b815260040161034690610f8f565b60036040518060800160405280866001600160a01b0316815260200185815260200184848080601f0160208091040260200160405190810160405280939291908181526020018383808284376000920182905250938552505050602091820181905283546001808201865594825290829020835160049092020180546001600160a01b0319166001600160a01b039092169190911781558282015193810193909355604082015180519293926105099260028501920190610c49565b50606091909101516003918201805460ff19169115159190911790555433906105349060019061106d565b63ffffffff167f9ab4bb826e572f31cedccfbab02b61b88bac93d36fcab2ca91db95262317d64460405160405180910390a350505050565b6000818154811061057c57600080fd5b6000918252602090912001546001600160a01b0316905081565b60606003805480602002602001604051908101604052809291908181526020016000905b828210156106b0576000848152602090819020604080516080810182526004860290920180546001600160a01b031683526001810154938301939093526002830180549293929184019161060d90611084565b80601f016020809104026020016040519081016040528092919081815260200182805461063990611084565b80156106865780601f1061065b57610100808354040283529160200191610686565b820191906000526020600020905b81548152906001019060200180831161066957829003601f168201915b50505091835250506003919091015460ff16151560209182015290825260019290920191016105ba565b50505050905090565b3360009081526001602052604090205460ff166106e85760405162461bcd60e51b815260040161034690610f8f565b600354819063ffffffff8216106107115760405162461bcd60e51b815260040161034690610fc6565b8160038163ffffffff168154811061072b5761072b610ffd565b600091825260209091206003600490920201015460ff161561075f5760405162461bcd60e51b815260040161034690611013565b63ffffffff831660009081526004602081815260408084203385529091529091205460ff166107bd5760405162461bcd60e51b815260206004820152600a602482015269139bdd081cda59db995960b21b6044820152606401610346565b63ffffffff8416600081815260208381526040808320338085529252808320805460ff19169055519092917f21c5371a7571406048fd764b9a5a179d6f78f600ffeba10dc664b0372703259a91a350505050565b6060600080548060200260200160405190810160405280929190818152602001828054801561086957602002820191906000526020600020905b81546001600160a01b0316815260019091019060200180831161084b575b5050505050905090565b600354600090829063ffffffff82161061089f5760405162461bcd60e51b815260040161034690610fc6565b6000805b60005460ff8216101561092c5763ffffffff851660009081526004602052604081208154909190819060ff85169081106108df576108df610ffd565b60009182526020808320909101546001600160a01b0316835282019290925260400190205460ff161561091a5781610916816110b9565b9250505b80610924816110d4565b9150506108a3565b5060025460ff168110610943576001925050610949565b60009250505b50919050565b6003818154811061095f57600080fd5b60009182526020909120600490910201805460018201546002830180546001600160a01b03909316945090929161099590611084565b80601f01602080910402602001604051908101604052809291908181526020018280546109c190611084565b8015610a0e5780601f106109e357610100808354040283529160200191610a0e565b820191906000526020600020905b8154815290600101906020018083116109f157829003601f168201915b5050506003909301549192505060ff1684565b3360009081526001602052604090205460ff16610a505760405162461bcd60e51b815260040161034690610f8f565b600354819063ffffffff821610610a795760405162461bcd60e51b815260040161034690610fc6565b8160038163ffffffff1681548110610a9357610a93610ffd565b600091825260209091206003600490920201015460ff1615610ac75760405162461bcd60e51b815260040161034690611013565b610ad083610873565b610b1c5760405162461bcd60e51b815260206004820152601960248201527f4e6f742073756666696369656e74207369676e617475726573000000000000006044820152606401610346565b600060038463ffffffff1681548110610b3757610b37610ffd565b6000918252602082206003600490920201908101805460ff191660019081179091558154908201546040519294506001600160a01b0390911691610b7f9060028601906110f4565b60006040518083038185875af1925050503d8060008114610bbc576040519150601f19603f3d011682016040523d82523d6000602084013e610bc1565b606091505b5050905080610c075760405162461bcd60e51b8152602060048201526012602482015271151c985b9cd858dd1a5bdb8819985a5b195960721b6044820152606401610346565b60405133815263ffffffff8616907fa7d024a59b2052fb10f462d70ca93a208e68dc74abc3c015fabf25b1dbb451fd9060200160405180910390a25050505050565b828054610c5590611084565b90600052602060002090601f016020900481019282610c775760008555610cbd565b82601f10610c9057805160ff1916838001178555610cbd565b82800160010185558215610cbd579182015b82811115610cbd578251825591602001919060010190610ca2565b50610cc9929150610ccd565b5090565b5b80821115610cc95760008155600101610cce565b803563ffffffff81168114610cf657600080fd5b919050565b600060208284031215610d0d57600080fd5b610d1682610ce2565b9392505050565b80356001600160a01b0381168114610cf657600080fd5b60008060008060608587031215610d4a57600080fd5b610d5385610d1d565b935060208501359250604085013567ffffffffffffffff80821115610d7757600080fd5b818701915087601f830112610d8b57600080fd5b813581811115610d9a57600080fd5b886020828501011115610dac57600080fd5b95989497505060200194505050565b600060208284031215610dcd57600080fd5b5035919050565b600060208284031215610de657600080fd5b610d1682610d1d565b6000815180845260005b81811015610e1557602081850181015186830182015201610df9565b81811115610e27576000602083870101525b50601f01601f19169290920160200192915050565b60006020808301818452808551808352604092508286019150828160051b87010184880160005b83811015610ec757888303603f19018552815180516001600160a01b03168452878101518885015286810151608088860181905290610ea482870182610def565b606093840151151596909301959095525094870194925090860190600101610e63565b509098975050505050505050565b6020808252825182820181905260009190848201906040850190845b81811015610f165783516001600160a01b031683529284019291840191600101610ef1565b50909695505050505050565b60018060a01b0385168152836020820152608060408201526000610f496080830185610def565b9050821515606083015295945050505050565b60008060408385031215610f6f57600080fd5b610f7883610ce2565b9150610f8660208401610d1d565b90509250929050565b6020808252601d908201527f4e6f742061207369676e6572206f662074686973206d756c7469736967000000604082015260600190565b6020808252601b908201527f5472616e73616374696f6e7320646f6573206e6f742065786973740000000000604082015260600190565b634e487b7160e01b600052603260045260246000fd5b60208082526024908201527f54686973207472616e73616374696e2077617320616c726561647920657865636040820152631d5d195960e21b606082015260800190565b634e487b7160e01b600052601160045260246000fd5b60008282101561107f5761107f611057565b500390565b600181811c9082168061109857607f821691505b6020821081141561094957634e487b7160e01b600052602260045260246000fd5b60006000198214156110cd576110cd611057565b5060010190565b600060ff821660ff8114156110eb576110eb611057565b60010192915050565b600080835481600182811c91508083168061111057607f831692505b602080841082141561113057634e487b7160e01b86526022600452602486fd5b818015611144576001811461115557611182565b60ff19861689528489019650611182565b60008a81526020902060005b8681101561117a5781548b820152908501908301611161565b505084890196505b50949897505050505050505056fea2646970667358221220c0ea55844de092e343d9268aac508e6475ee50461ad5f0d15c1bbd988cbc583864736f6c634300080a0033",
    "linkReferences": {}
  }
}