{
  "abi": [
    {
      "inputs": [
        {
          "internalType": "address[]",
          "name": "_signers",
          "type": "address[]"
        },
        {
          "internalType": "uint8",
          "name": "_requiredSignatures",
          "type": "uint8"
        }
      ],
      "stateMutability": "payable",
      "type": "constructor"
    },
    {
      "anonymous": false,
      "inputs": [
        {
          "indexed": true,
          "internalType": "address",
          "name": "_from",
          "type": "address"
        },
        {
          "indexed": true,
          "internalType": "uint256",
          "name": "_value",
          "type": "uint256"
        }
      ],
      "name": "Deposit",
      "type": "event"
    },
    {
      "anonymous": false,
      "inputs": [
        {
          "indexed": true,
          "internalType": "uint32",
          "name": "_id",
          "type": "uint32"
        },
        {
          "indexed": false,
          "internalType": "address",
          "name": "_executor",
          "type": "address"
        }
      ],
      "name": "Execute",
      "type": "event"
    },
    {
      "anonymous": false,
      "inputs": [
        {
          "indexed": true,
          "internalType": "uint32",
          "name": "_id",
          "type": "uint32"
        },
        {
          "indexed": true,
          "internalType": "address",
          "name": "_creator",
          "type": "address"
        }
      ],
      "name": "Initialize",
      "type": "event"
    },
    {
      "anonymous": false,
      "inputs": [
        {
          "indexed": true,
          "internalType": "uint32",
          "name": "_id",
          "type": "uint32"
        },
        {
          "indexed": true,
          "internalType": "address",
          "name": "_signer",
          "type": "address"
        }
      ],
      "name": "Sign",
      "type": "event"
    },
    {
      "anonymous": false,
      "inputs": [
        {
          "indexed": true,
          "internalType": "uint32",
          "name": "_id",
          "type": "uint32"
        },
        {
          "indexed": true,
          "internalType": "address",
          "name": "_signer",
          "type": "address"
        }
      ],
      "name": "Unsign",
      "type": "event"
    },
    {
      "inputs": [],
      "name": "balance",
      "outputs": [
        {
          "internalType": "uint256",
          "name": "",
          "type": "uint256"
        }
      ],
      "stateMutability": "view",
      "type": "function"
    },
    {
      "inputs": [
        {
          "internalType": "uint32",
          "name": "_id",
          "type": "uint32"
        }
      ],
      "name": "executeTransaction",
      "outputs": [
        {
          "internalType": "bytes",
          "name": "",
          "type": "bytes"
        }
      ],
      "stateMutability": "nonpayable",
      "type": "function"
    },
    {
      "inputs": [],
      "name": "getSigners",
      "outputs": [
        {
          "internalType": "address[]",
          "name": "",
          "type": "address[]"
        }
      ],
      "stateMutability": "view",
      "type": "function"
    },
    {
      "inputs": [],
      "name": "getTransactions",
      "outputs": [
        {
          "components": [
            {
              "internalType": "address",
              "name": "to",
              "type": "address"
            },
            {
              "internalType": "uint256",
              "name": "value",
              "type": "uint256"
            },
            {
              "internalType": "bytes",
              "name": "data",
              "type": "bytes"
            },
            {
              "internalType": "bool",
              "name": "executed",
              "type": "bool"
            }
          ],
          "internalType": "struct Multisig.Transaction[]",
          "name": "",
          "type": "tuple[]"
        }
      ],
      "stateMutability": "view",
      "type": "function"
    },
    {
      "inputs": [
        {
          "internalType": "uint32",
          "name": "",
          "type": "uint32"
        },
        {
          "internalType": "address",
          "name": "",
          "type": "address"
        }
      ],
      "name": "hasSigned",
      "outputs": [
        {
          "internalType": "bool",
          "name": "",
          "type": "bool"
        }
      ],
      "stateMutability": "view",
      "type": "function"
    },
    {
      "inputs": [
        {
          "internalType": "address",
          "name": "_to",
          "type": "address"
        },
        {
          "internalType": "uint256",
          "name": "_value",
          "type": "uint256"
        },
        {
          "internalType": "bytes",
          "name": "_data",
          "type": "bytes"
        }
      ],
      "name": "initializeTransaction",
      "outputs": [],
      "stateMutability": "nonpayable",
      "type": "function"
    },
    {
      "inputs": [
        {
          "internalType": "uint32",
          "name": "_id",
          "type": "uint32"
        }
      ],
      "name": "isApproved",
      "outputs": [
        {
          "internalType": "bool",
          "name": "",
          "type": "bool"
        }
      ],
      "stateMutability": "view",
      "type": "function"
    },
    {
      "inputs": [
        {
          "internalType": "address",
          "name": "",
          "type": "address"
        }
      ],
      "name": "isSigner",
      "outputs": [
        {
          "internalType": "bool",
          "name": "",
          "type": "bool"
        }
      ],
      "stateMutability": "view",
      "type": "function"
    },
    {
      "inputs": [],
      "name": "requiredSignatures",
      "outputs": [
        {
          "internalType": "uint8",
          "name": "",
          "type": "uint8"
        }
      ],
      "stateMutability": "view",
      "type": "function"
    },
    {
      "inputs": [
        {
          "internalType": "uint32",
          "name": "_id",
          "type": "uint32"
        }
      ],
      "name": "signTransaction",
      "outputs": [],
      "stateMutability": "nonpayable",
      "type": "function"
    },
    {
      "inputs": [
        {
          "internalType": "uint256",
          "name": "",
          "type": "uint256"
        }
      ],
      "name": "signers",
      "outputs": [
        {
          "internalType": "address",
          "name": "",
          "type": "address"
        }
      ],
      "stateMutability": "view",
      "type": "function"
    },
    {
      "inputs": [],
      "name": "signersCount",
      "outputs": [
        {
          "internalType": "uint256",
          "name": "",
          "type": "uint256"
        }
      ],
      "stateMutability": "view",
      "type": "function"
    },
    {
      "inputs": [
        {
          "internalType": "uint256",
          "name": "",
          "type": "uint256"
        }
      ],
      "name": "transactions",
      "outputs": [
        {
          "internalType": "address",
          "name": "to",
          "type": "address"
        },
        {
          "internalType": "uint256",
          "name": "value",
          "type": "uint256"
        },
        {
          "internalType": "bytes",
          "name": "data",
          "type": "bytes"
        },
        {
          "internalType": "bool",
          "name": "executed",
          "type": "bool"
        }
      ],
      "stateMutability": "view",
      "type": "function"
    },
    {
      "inputs": [
        {
          "internalType": "uint32",
          "name": "_id",
          "type": "uint32"
        }
      ],
      "name": "unsignTransaction",
      "outputs": [],
      "stateMutability": "nonpayable",
      "type": "function"
    },
    {
      "stateMutability": "payable",
      "type": "receive"
    }
  ],
  "bytecode": {
    "object": "0x60806040526040516200163d3803806200163d8339810160408190526200002691620002e4565b60008160ff161180156200003e575081518160ff1611155b6200009b5760405162461bcd60e51b815260206004820152602260248201527f496e76616c6964207265717569726564207369676e61747572657320616d6f756044820152611b9d60f21b60648201526084015b60405180910390fd5b6002805460ff191660ff831617905560005b82518160ff161015620002965760006001600160a01b0316838260ff1681518110620000dd57620000dd620003ca565b60200260200101516001600160a01b031614156200013e5760405162461bcd60e51b815260206004820152601e60248201527f5a65726f20616464726573732063616e27742062652061207369676e65720000604482015260640162000092565b60016000848360ff16815181106200015a576200015a620003ca565b6020908102919091018101516001600160a01b031682528101919091526040016000205460ff1615620001d05760405162461bcd60e51b815260206004820152601c60248201527f456e636f756e7465726564207369676e6572207265647564616e637900000000604482015260640162000092565b6001806000858460ff1681518110620001ed57620001ed620003ca565b60200260200101516001600160a01b03166001600160a01b0316815260200190815260200160002060006101000a81548160ff0219169083151502179055506000838260ff1681518110620002465762000246620003ca565b60209081029190910181015182546001810184556000938452919092200180546001600160a01b0319166001600160a01b03909216919091179055806200028d81620003e0565b915050620000ad565b5050506200040f565b634e487b7160e01b600052604160045260246000fd5b80516001600160a01b0381168114620002cd57600080fd5b919050565b805160ff81168114620002cd57600080fd5b60008060408385031215620002f857600080fd5b82516001600160401b03808211156200031057600080fd5b818501915085601f8301126200032557600080fd5b81516020828211156200033c576200033c6200029f565b8160051b604051601f19603f830116810181811086821117156200036457620003646200029f565b6040529283528183019350848101820192898411156200038357600080fd5b948201945b83861015620003ac576200039c86620002b5565b8552948201949382019362000388565b9650620003bd9050878201620002d2565b9450505050509250929050565b634e487b7160e01b600052603260045260246000fd5b600060ff821660ff8114156200040657634e487b7160e01b600052601160045260246000fd5b60010192915050565b61121e806200041f6000396000f3fe6080604052600436106100e15760003560e01c806394cf795e1161007f578063a3e2cd7211610059578063a3e2cd72146102b9578063a91fe53f146102e6578063b69ef8a814610321578063e40956b11461033e57600080fd5b806394cf795e14610247578063998e32fd146102695780639ace38c21461028957600080fd5b80637df73e27116100bb5780637df73e271461019957806383920e90146101d95780638d068043146101fb5780638fa837fd1461022757600080fd5b80630aaa82021461011a5780630c74b6a71461013c5780632079fb9a1461015c57600080fd5b3661011557604051349033907fe1fffcc4923d04b559f4d29a8bfc6cda04eb5b0d3c460751c2402c5c5cc9109c90600090a3005b600080fd5b34801561012657600080fd5b5061013a610135366004610d40565b610353565b005b34801561014857600080fd5b5061013a610157366004610d79565b61045a565b34801561016857600080fd5b5061017c610177366004610e00565b6105a8565b6040516001600160a01b0390911681526020015b60405180910390f35b3480156101a557600080fd5b506101c96101b4366004610e19565b60016020526000908152604090205460ff1681565b6040519015158152602001610190565b3480156101e557600080fd5b506101ee6105d2565b6040516101909190610e81565b34801561020757600080fd5b506002546102159060ff1681565b60405160ff9091168152602001610190565b34801561023357600080fd5b5061013a610242366004610d40565b6106f5565b34801561025357600080fd5b5061025c61084d565b6040516101909190610f1a565b34801561027557600080fd5b506101c9610284366004610d40565b6108af565b34801561029557600080fd5b506102a96102a4366004610e00565b61098b565b6040516101909493929190610f67565b3480156102c557600080fd5b506102d96102d4366004610d40565b610a5d565b6040516101909190610fa1565b3480156102f257600080fd5b506101c9610301366004610fb4565b600460209081526000928352604080842090915290825290205460ff1681565b34801561032d57600080fd5b50475b604051908152602001610190565b34801561034a57600080fd5b50600054610330565b3360009081526001602052604090205460ff1661038b5760405162461bcd60e51b815260040161038290610fe7565b60405180910390fd5b600354819063ffffffff8216106103b45760405162461bcd60e51b81526004016103829061101e565b8160038163ffffffff16815481106103ce576103ce611055565b600091825260209091206003600490920201015460ff16156104025760405162461bcd60e51b81526004016103829061106b565b63ffffffff83166000818152600460209081526040808320338085529252808320805460ff19166001179055519092917f658b3d92d777380578a5dfd78bc7ac9a3f83ed2bbeb398c27a1281e035b0860491a3505050565b3360009081526001602052604090205460ff166104895760405162461bcd60e51b815260040161038290610fe7565b60036040518060800160405280866001600160a01b0316815260200185815260200184848080601f0160208091040260200160405190810160405280939291908181526020018383808284376000920182905250938552505050602091820181905283546001808201865594825290829020835160049092020180546001600160a01b0319166001600160a01b039092169190911781558282015193810193909355604082015180519293926105459260028501920190610c8e565b50606091909101516003918201805460ff1916911515919091179055543390610570906001906110c5565b63ffffffff167f9ab4bb826e572f31cedccfbab02b61b88bac93d36fcab2ca91db95262317d64460405160405180910390a350505050565b600081815481106105b857600080fd5b6000918252602090912001546001600160a01b0316905081565b60606003805480602002602001604051908101604052809291908181526020016000905b828210156106ec576000848152602090819020604080516080810182526004860290920180546001600160a01b0316835260018101549383019390935260028301805492939291840191610649906110dc565b80601f0160208091040260200160405190810160405280929190818152602001828054610675906110dc565b80156106c25780601f10610697576101008083540402835291602001916106c2565b820191906000526020600020905b8154815290600101906020018083116106a557829003601f168201915b50505091835250506003919091015460ff16151560209182015290825260019290920191016105f6565b50505050905090565b3360009081526001602052604090205460ff166107245760405162461bcd60e51b815260040161038290610fe7565b600354819063ffffffff82161061074d5760405162461bcd60e51b81526004016103829061101e565b8160038163ffffffff168154811061076757610767611055565b600091825260209091206003600490920201015460ff161561079b5760405162461bcd60e51b81526004016103829061106b565b63ffffffff831660009081526004602081815260408084203385529091529091205460ff166107f95760405162461bcd60e51b815260206004820152600a602482015269139bdd081cda59db995960b21b6044820152606401610382565b63ffffffff8416600081815260208381526040808320338085529252808320805460ff19169055519092917f21c5371a7571406048fd764b9a5a179d6f78f600ffeba10dc664b0372703259a91a350505050565b606060008054806020026020016040519081016040528092919081815260200182805480156108a557602002820191906000526020600020905b81546001600160a01b03168152600190910190602001808311610887575b5050505050905090565b600354600090829063ffffffff8216106108db5760405162461bcd60e51b81526004016103829061101e565b6000805b60005460ff821610156109685763ffffffff851660009081526004602052604081208154909190819060ff851690811061091b5761091b611055565b60009182526020808320909101546001600160a01b0316835282019290925260400190205460ff1615610956578161095281611111565b9250505b806109608161112c565b9150506108df565b5060025460ff16811061097f576001925050610985565b60009250505b50919050565b6003818154811061099b57600080fd5b60009182526020909120600490910201805460018201546002830180546001600160a01b0390931694509092916109d1906110dc565b80601f01602080910402602001604051908101604052809291908181526020018280546109fd906110dc565b8015610a4a5780601f10610a1f57610100808354040283529160200191610a4a565b820191906000526020600020905b815481529060010190602001808311610a2d57829003601f168201915b5050506003909301549192505060ff1684565b3360009081526001602052604090205460609060ff16610a8f5760405162461bcd60e51b815260040161038290610fe7565b600354829063ffffffff821610610ab85760405162461bcd60e51b81526004016103829061101e565b8260038163ffffffff1681548110610ad257610ad2611055565b600091825260209091206003600490920201015460ff1615610b065760405162461bcd60e51b81526004016103829061106b565b610b0f846108af565b610b5b5760405162461bcd60e51b815260206004820152601960248201527f4e6f742073756666696369656e74207369676e617475726573000000000000006044820152606401610382565b600060038563ffffffff1681548110610b7657610b76611055565b6000918252602082206003600490920201908101805460ff1916600190811790915581549082015460405192945083926001600160a01b0390921691610bc090600287019061114c565b60006040518083038185875af1925050503d8060008114610bfd576040519150601f19603f3d011682016040523d82523d6000602084013e610c02565b606091505b509150915081610c495760405162461bcd60e51b8152602060048201526012602482015271151c985b9cd858dd1a5bdb8819985a5b195960721b6044820152606401610382565b60405133815263ffffffff8816907fa7d024a59b2052fb10f462d70ca93a208e68dc74abc3c015fabf25b1dbb451fd9060200160405180910390a29695505050505050565b828054610c9a906110dc565b90600052602060002090601f016020900481019282610cbc5760008555610d02565b82601f10610cd557805160ff1916838001178555610d02565b82800160010185558215610d02579182015b82811115610d02578251825591602001919060010190610ce7565b50610d0e929150610d12565b5090565b5b80821115610d0e5760008155600101610d13565b803563ffffffff81168114610d3b57600080fd5b919050565b600060208284031215610d5257600080fd5b610d5b82610d27565b9392505050565b80356001600160a01b0381168114610d3b57600080fd5b60008060008060608587031215610d8f57600080fd5b610d9885610d62565b935060208501359250604085013567ffffffffffffffff80821115610dbc57600080fd5b818701915087601f830112610dd057600080fd5b813581811115610ddf57600080fd5b886020828501011115610df157600080fd5b95989497505060200194505050565b600060208284031215610e1257600080fd5b5035919050565b600060208284031215610e2b57600080fd5b610d5b82610d62565b6000815180845260005b81811015610e5a57602081850181015186830182015201610e3e565b81811115610e6c576000602083870101525b50601f01601f19169290920160200192915050565b60006020808301818452808551808352604092508286019150828160051b87010184880160005b83811015610f0c57888303603f19018552815180516001600160a01b03168452878101518885015286810151608088860181905290610ee982870182610e34565b606093840151151596909301959095525094870194925090860190600101610ea8565b509098975050505050505050565b6020808252825182820181905260009190848201906040850190845b81811015610f5b5783516001600160a01b031683529284019291840191600101610f36565b50909695505050505050565b60018060a01b0385168152836020820152608060408201526000610f8e6080830185610e34565b9050821515606083015295945050505050565b602081526000610d5b6020830184610e34565b60008060408385031215610fc757600080fd5b610fd083610d27565b9150610fde60208401610d62565b90509250929050565b6020808252601d908201527f4e6f742061207369676e6572206f662074686973206d756c7469736967000000604082015260600190565b6020808252601b908201527f5472616e73616374696f6e7320646f6573206e6f742065786973740000000000604082015260600190565b634e487b7160e01b600052603260045260246000fd5b60208082526024908201527f54686973207472616e73616374696e2077617320616c726561647920657865636040820152631d5d195960e21b606082015260800190565b634e487b7160e01b600052601160045260246000fd5b6000828210156110d7576110d76110af565b500390565b600181811c908216806110f057607f821691505b6020821081141561098557634e487b7160e01b600052602260045260246000fd5b6000600019821415611125576111256110af565b5060010190565b600060ff821660ff811415611143576111436110af565b60010192915050565b600080835481600182811c91508083168061116857607f831692505b602080841082141561118857634e487b7160e01b86526022600452602486fd5b81801561119c57600181146111ad576111da565b60ff198616895284890196506111da565b60008a81526020902060005b868110156111d25781548b8201529085019083016111b9565b505084890196505b50949897505050505050505056fea2646970667358221220cb325ac01fe7a092d03243cf8c33fe4ed7414c80297ec771c2f7b58fbab4582164736f6c634300080a0033",
    "linkReferences": {}
  }
}