{
  "abi": [
    {
      "stateMutability": "payable",
      "type": "fallback"
    },
    {
      "inputs": [],
      "name": "a",
      "outputs": [
        {
          "internalType": "uint256",
          "name": "",
          "type": "uint256"
        }
      ],
      "stateMutability": "view",
      "type": "function"
    },
    {
      "inputs": [],
      "name": "balance",
      "outputs": [
        {
          "internalType": "uint256",
          "name": "",
          "type": "uint256"
        }
      ],
      "stateMutability": "view",
      "type": "function"
    },
    {
      "inputs": [
        {
          "internalType": "uint256",
          "name": "_a",
          "type": "uint256"
        }
      ],
      "name": "setA",
      "outputs": [
        {
          "internalType": "uint256",
          "name": "",
          "type": "uint256"
        }
      ],
      "stateMutability": "nonpayable",
      "type": "function"
    },
    {
      "stateMutability": "payable",
      "type": "receive"
    }
  ],
  "bytecode": {
    "object": "0x608060405234801561001057600080fd5b5060dd8061001f6000396000f3fe60806040526004361060315760003560e01c80630dbe671f146039578063b69ef8a814605f578063ee919d5014607057005b36603757005b005b348015604457600080fd5b50604d60005481565b60405190815260200160405180910390f35b348015606a57600080fd5b5047604d565b348015607b57600080fd5b50604d6087366004608f565b600081905590565b60006020828403121560a057600080fd5b503591905056fea26469706673582212208c21ef8497582cb5421652dba7f8011acb03d02b52dfe1cb05e3d6b2c240b49064736f6c634300080a0033",
    "linkReferences": {}
  }
}